:02000000801B63
:02000300219347
:02000B00213F93
:02001300219337
:10001B0021627F78780874007C00F608DFFC75811C
:10002B007F758CE8758DFB753B64758911758850F0
:10003B0075A88A7586FF75A60175B0FFD2001000F2
:10004B000810011910020E80F5783C11B6433201ED
:10005B0043340180E95332FE5334FE80E1E53AB478
:10006B000111B40214B40315B40416B40517B40685
:10007B001880CBEC2401FC80C515B080C115B08075
:10008B00BD15B080B915B080B515B080B1E62401AF
:10009B00D4B46015E4F608E62401D4B4600BE4F69E
:1000AB0008E62401D4B42401E4F62279307F0290CF
:1000BB000193E6540F93F709E6C4540F93F709081D
:1000CB00DFF0E6540F93F709E6C4540F7002740F78
:1000DB0093F722E5A0F4AF37BF00177E087D00230E
:1000EB0030E0010DDEF9BD0108F5397538027537C1
:1000FB000122BF011DB53913D5380FD20185393A0D
:10010B00540F60077537027538C822753703753879
:10011B000322BF020FB539F3D53808753832D20137
:10012B0085393A22BF0309600475380322D5380399
:0D013B0075370022758CE8C0D0C0E0D2D32B
:1001480011DED53B10E53BB43202D202753B647830
:100158003C1198D200D0E0D0D032758DFBC0D0C011
:10016800E0C082C083D2D37590FFE5362430F8868C
:1001780080E5369001A393F590E53604B40601E4D2
:10018800F536D083D082D0E0D0D032DE82ECE6B231
:10019800767EC2FEF61CBAF8FA2000FEFDFBF7EFE9
:0301A800DFBF7F37
:00000001FF
